{
  "_format": "hh-sol-artifact-1",
  "contractName": "Verifier",
  "sourceName": "cache/solpp-generated-contracts/zksync/Verifier.sol",
  "abi": [
    {
      "inputs": [
        {
          "internalType": "bytes",
          "name": "",
          "type": "bytes"
        }
      ],
      "name": "initialize",
      "outputs": [],
      "stateMutability": "nonpayable",
      "type": "function"
    },
    {
      "inputs": [
        {
          "internalType": "bytes",
          "name": "upgradeParameters",
          "type": "bytes"
        }
      ],
      "name": "upgrade",
      "outputs": [],
      "stateMutability": "nonpayable",
      "type": "function"
    },
    {
      "inputs": [
        {
          "internalType": "uint256[]",
          "name": "_recursiveInput",
          "type": "uint256[]"
        },
        {
          "internalType": "uint256[]",
          "name": "_proof",
          "type": "uint256[]"
        },
        {
          "internalType": "uint8[]",
          "name": "_vkIndexes",
          "type": "uint8[]"
        },
        {
          "internalType": "uint256[]",
          "name": "_individualVksInputs",
          "type": "uint256[]"
        },
        {
          "internalType": "uint256[16]",
          "name": "_subProofsLimbs",
          "type": "uint256[16]"
        }
      ],
      "name": "verifyAggregatedBlockProof",
      "outputs": [
        {
          "internalType": "bool",
          "name": "",
          "type": "bool"
        }
      ],
      "stateMutability": "view",
      "type": "function"
    },
    {
      "inputs": [
        {
          "internalType": "bytes32",
          "name": "_rootHash",
          "type": "bytes32"
        },
        {
          "internalType": "uint8",
          "name": "_chainId",
          "type": "uint8"
        },
        {
          "internalType": "uint32",
          "name": "_accountId",
          "type": "uint32"
        },
        {
          "internalType": "uint8",
          "name": "_subAccountId",
          "type": "uint8"
        },
        {
          "internalType": "address",
          "name": "_owner",
          "type": "address"
        },
        {
          "internalType": "uint16",
          "name": "_tokenId",
          "type": "uint16"
        },
        {
          "internalType": "uint16",
          "name": "_srcTokenId",
          "type": "uint16"
        },
        {
          "internalType": "uint128",
          "name": "_amount",
          "type": "uint128"
        },
        {
          "internalType": "uint256[]",
          "name": "_proof",
          "type": "uint256[]"
        }
      ],
      "name": "verifyExitProof",
      "outputs": [
        {
          "internalType": "bool",
          "name": "",
          "type": "bool"
        }
      ],
      "stateMutability": "view",
      "type": "function"
    },
    {
      "inputs": [
        {
          "internalType": "uint256[]",
          "name": "public_inputs",
          "type": "uint256[]"
        },
        {
          "internalType": "uint256[]",
          "name": "serialized_proof",
          "type": "uint256[]"
        },
        {
          "components": [
            {
              "internalType": "uint256",
              "name": "domain_size",
              "type": "uint256"
            },
            {
              "internalType": "uint256",
              "name": "num_inputs",
              "type": "uint256"
            },
            {
              "components": [
                {
                  "internalType": "uint256",
                  "name": "value",
                  "type": "uint256"
                }
              ],
              "internalType": "struct PairingsBn254.Fr",
              "name": "omega",
              "type": "tuple"
            },
            {
              "components": [
                {
                  "internalType": "uint256",
                  "name": "X",
                  "type": "uint256"
                },
                {
                  "internalType": "uint256",
                  "name": "Y",
                  "type": "uint256"
                }
              ],
              "internalType": "struct PairingsBn254.G1Point[7]",
              "name": "gate_setup_commitments",
              "type": "tuple[7]"
            },
            {
              "components": [
                {
                  "internalType": "uint256",
                  "name": "X",
                  "type": "uint256"
                },
                {
                  "internalType": "uint256",
                  "name": "Y",
                  "type": "uint256"
                }
              ],
              "internalType": "struct PairingsBn254.G1Point[2]",
              "name": "gate_selector_commitments",
              "type": "tuple[2]"
            },
            {
              "components": [
                {
                  "internalType": "uint256",
                  "name": "X",
                  "type": "uint256"
                },
                {
                  "internalType": "uint256",
                  "name": "Y",
                  "type": "uint256"
                }
              ],
              "internalType": "struct PairingsBn254.G1Point[4]",
              "name": "copy_permutation_commitments",
              "type": "tuple[4]"
            },
            {
              "components": [
                {
                  "internalType": "uint256",
                  "name": "value",
                  "type": "uint256"
                }
              ],
              "internalType": "struct PairingsBn254.Fr[3]",
              "name": "copy_permutation_non_residues",
              "type": "tuple[3]"
            },
            {
              "components": [
                {
                  "internalType": "uint256[2]",
                  "name": "X",
                  "type": "uint256[2]"
                },
                {
                  "internalType": "uint256[2]",
                  "name": "Y",
                  "type": "uint256[2]"
                }
              ],
              "internalType": "struct PairingsBn254.G2Point",
              "name": "g2_x",
              "type": "tuple"
            }
          ],
          "internalType": "struct Plonk4VerifierWithAccessToDNext.VerificationKey",
          "name": "vk",
          "type": "tuple"
        }
      ],
      "name": "verify_serialized_proof",
      "outputs": [
        {
          "internalType": "bool",
          "name": "",
          "type": "bool"
        }
      ],
      "stateMutability": "view",
      "type": "function"
    },
    {
      "inputs": [
        {
          "internalType": "uint256[]",
          "name": "public_inputs",
          "type": "uint256[]"
        },
        {
          "internalType": "uint256[]",
          "name": "serialized_proof",
          "type": "uint256[]"
        },
        {
          "internalType": "uint256",
          "name": "recursive_vks_root",
          "type": "uint256"
        },
        {
          "internalType": "uint8",
          "name": "max_valid_index",
          "type": "uint8"
        },
        {
          "internalType": "uint8[]",
          "name": "recursive_vks_indexes",
          "type": "uint8[]"
        },
        {
          "internalType": "uint256[]",
          "name": "individual_vks_inputs",
          "type": "uint256[]"
        },
        {
          "internalType": "uint256[16]",
          "name": "subproofs_limbs",
          "type": "uint256[16]"
        },
        {
          "components": [
            {
              "internalType": "uint256",
              "name": "domain_size",
              "type": "uint256"
            },
            {
              "internalType": "uint256",
              "name": "num_inputs",
              "type": "uint256"
            },
            {
              "components": [
                {
                  "internalType": "uint256",
                  "name": "value",
                  "type": "uint256"
                }
              ],
              "internalType": "struct PairingsBn254.Fr",
              "name": "omega",
              "type": "tuple"
            },
            {
              "components": [
                {
                  "internalType": "uint256",
                  "name": "X",
                  "type": "uint256"
                },
                {
                  "internalType": "uint256",
                  "name": "Y",
                  "type": "uint256"
                }
              ],
              "internalType": "struct PairingsBn254.G1Point[7]",
              "name": "gate_setup_commitments",
              "type": "tuple[7]"
            },
            {
              "components": [
                {
                  "internalType": "uint256",
                  "name": "X",
                  "type": "uint256"
                },
                {
                  "internalType": "uint256",
                  "name": "Y",
                  "type": "uint256"
                }
              ],
              "internalType": "struct PairingsBn254.G1Point[2]",
              "name": "gate_selector_commitments",
              "type": "tuple[2]"
            },
            {
              "components": [
                {
                  "internalType": "uint256",
                  "name": "X",
                  "type": "uint256"
                },
                {
                  "internalType": "uint256",
                  "name": "Y",
                  "type": "uint256"
                }
              ],
              "internalType": "struct PairingsBn254.G1Point[4]",
              "name": "copy_permutation_commitments",
              "type": "tuple[4]"
            },
            {
              "components": [
                {
                  "internalType": "uint256",
                  "name": "value",
                  "type": "uint256"
                }
              ],
              "internalType": "struct PairingsBn254.Fr[3]",
              "name": "copy_permutation_non_residues",
              "type": "tuple[3]"
            },
            {
              "components": [
                {
                  "internalType": "uint256[2]",
                  "name": "X",
                  "type": "uint256[2]"
                },
                {
                  "internalType": "uint256[2]",
                  "name": "Y",
                  "type": "uint256[2]"
                }
              ],
              "internalType": "struct PairingsBn254.G2Point",
              "name": "g2_x",
              "type": "tuple"
            }
          ],
          "internalType": "struct Plonk4VerifierWithAccessToDNext.VerificationKey",
          "name": "vk",
          "type": "tuple"
        }
      ],
      "name": "verify_serialized_proof_with_recursion",
      "outputs": [
        {
          "internalType": "bool",
          "name": "",
          "type": "bool"
        }
      ],
      "stateMutability": "view",
      "type": "function"
    }
  ],
  "bytecode": "0x608060405234801561001057600080fd5b506151bf806100206000396000f3fe608060405234801561001057600080fd5b50600436106100725760003560e01c8063439fab9111610050578063439fab91146100a0578063a830bd60146100c8578063fd1bc844146100db57610072565b80631d8a56631461007757806325394645146100a057806328a587a0146100b5575b600080fd5b61008a610085366004614be7565b6100ee565b60405161009791906150e5565b60405180910390f35b6100b36100ae366004614e41565b610127565b005b61008a6100c3366004614d59565b61012b565b61008a6100d6366004614b2c565b61028c565b61008a6100e9366004614c5a565b610320565b6000835182602001511461010157600080fd5b600061010d8585610361565b9050600061011b8285610668565b925050505b9392505050565b5050565b60008060028c8c8c8c8c8c8c8c60405160200161014f989796959493929190614f10565b60408051601f198184030181529082905261016991614fde565b602060405180830381855afa158015610186573d6000803e3d6000fd5b5050506040513d601f19601f820116820180604052508101906101a99190614d41565b60408051600180825281830190925291925060009190602080830190803683370190505090506001600160fd1b038260001c16816000815181106101e957fe5b6020026020010181815250506000610234828787808060200260200160405190810160405280939291908181526020018383602002808284376000920191909152506106b492505050565b9050600061024061092f565b9050825181602001511461026f5760405162461bcd60e51b8152600401610266906150f0565b60405180910390fd5b6102798282610def565b9f9e505050505050505050505050505050565b6000805b83518110156102d5576001600160fd1b038482815181106102ad57fe5b6020026020010151168482815181106102c257fe5b6020908102919091010152600101610290565b5060006102e28551610e23565b905061031587877f18e5b30d2b3c5a791c8e9cbc45ff45d0cf72a5b9df98b3820f42dec2e25b4302600289898988610320565b979650505050505050565b6000885182602001511461033357600080fd5b600061033f8a8a610361565b9050600061035282858b8b8b8b8b610e4a565b9b9a5050505050505050505050565b610369614225565b602282511461037757600080fd5b825167ffffffffffffffff8111801561038f57600080fd5b506040519080825280602002602001820160405280156103b9578160200160208202803683370190505b50815260005b83518110156103ff578381815181106103d457fe5b6020026020010151826000015182815181106103ec57fe5b60209081029190910101526001016103bf565b506000805b60048110156104645761044084838151811061041c57fe5b602002602001015185846001018151811061043357fe5b6020026020010151610ee5565b8360200151826004811061045057fe5b602002015260029190910190600101610404565b5061048b83828151811061047457fe5b602002602001015184836001018151811061043357fe5b604083015260020160005b60048110156104d2576104ae84838151811061041c57fe5b836060015182600481106104be57fe5b602002015260029190910190600101610496565b5060005b600481101561051c576104fb8483815181106104ee57fe5b6020026020010151610fc7565b8360800151826004811061050b57fe5b6020020152600191820191016104d6565b5060005b6001811015610559576105388483815181106104ee57fe5b8360a00151826001811061054857fe5b602002015260019182019101610520565b5060005b6001811015610596576105758483815181106104ee57fe5b8360c00151826001811061058557fe5b60200201526001918201910161055d565b5060005b60038110156105d4576105b28483815181106104ee57fe5b83610140015182600381106105c357fe5b60200201526001918201910161059a565b506105e48382815181106104ee57fe5b8260e001819052506001810190506106018382815181106104ee57fe5b82610100018190525060018101905061061f8382815181106104ee57fe5b82610120018190525060018101905061063d83828151811061047457fe5b82610160018190525060028101905061065b83828151811061047457fe5b6101808301525092915050565b6000806000610677858561100d565b90925090508161068c576000925050506106ae565b80516106a99061069a61104d565b602084015160e088015161110d565b925050505b92915050565b6106bc6142d4565b60218251146106ca57600080fd5b825167ffffffffffffffff811180156106e257600080fd5b5060405190808252806020026020018201604052801561070c578160200160208202803683370190505b50815260005b83518110156107525783818151811061072757fe5b60200260200101518260000151828151811061073f57fe5b6020908102919091010152600101610712565b506000805b60048110156107935761076f84838151811061041c57fe5b8360200151826004811061077f57fe5b602002015260029190910190600101610757565b506107a383828151811061047457fe5b604083015260020160005b60048110156107ea576107c684838151811061041c57fe5b836060015182600481106107d657fe5b6020020152600291909101906001016107ae565b5060005b6004811015610827576108068483815181106104ee57fe5b8360800151826004811061081657fe5b6020020152600191820191016107ee565b5060005b6001811015610864576108438483815181106104ee57fe5b8360a00151826001811061085357fe5b60200201526001918201910161082b565b506108748382815181106104ee57fe5b8260c001819052506001810190506108918382815181106104ee57fe5b8260e001819052506001810190506108ae8382815181106104ee57fe5b61010083015260010160005b60038110156108f4576108d28483815181106104ee57fe5b83610120015182600381106108e357fe5b6020020152600191820191016108ba565b5061090483828151811061047457fe5b82610140018190525060028101905061092283828151811061047457fe5b6101608301525092915050565b610937614316565b6220000081526001602082015261096d7f032750f8f3c2493d0828c7285d0258e1bdcaa463f4442a52747b5c96639659bb610fc7565b60408201526109bc7f056707bb6d8c0ce743f3bc6743551b911a9eb709872234a46fc71b7c3c2f71bc7f1b463292311d8de7913ad0e8ce30b8a1d0368e06c8e342736b1cdc1132ab308d6111e9565b606082015152610a0c7f04301adb36673b362f4b67438100c0c8c0ea4c13bc962b89c9a3425b9ce65f1a7f041dea88fc64af583c257e06b131dbcdfca72bb4d8dac6f3654df6bb87a52ffa6111e9565b606082015160200152610a5f7f0e209c72488d29c2978dd4e4c1e6d84d036185ff4cfe94a36cab356ec46a5a747f21b56893837e5f7e3e730783ba0ff5389d0698a28c38a2233ed45d5ba8058fc56111e9565b606082015160400152610ab27f100db92f3abe27e28c87e9ad825b770ba38d74f013070c9b7e9ce5608267ae057f0ca2399efce6a259f6b09d9afba002ddbf9ff5934710baa922586588c23e34706111e9565b6060828101510152610b047f2c3fb4218a616df02901dea9940f97df1d1d6e26430fcd4948d4a46d007abb3b7f0b70c75b08271085e49d8351bdd8ca55c4f4ec94327387b54ebde26ae82035e46111e9565b606082015160800152610b577f13de9a5cecac0bace86d7bc0d0a563eeebc0a986a02e811e67a983ce8b82c35b7f14724ad8c4f03a5ac0e57b444ce44b2b1dfad69ccbd0c0c55bc0d70df6daac056111e9565b606082015160a00152610baa7f01a6af76016c335b1e0fc43dfb767ab6a70c10065bee25ecba7d35885fd947097f10ba67b3c379b464c05860ca5244ad5fbf1a9761ade6d6abaff7508481f70b7c6111e9565b608082015152610bfa7f0ffdbc4ce1959ba230baa6046b0b293bd6368c5d9d8506f9e830397c9d87f2887f2cde390d452116294e5bccfb62b595823e31f27de794798fcd6a10695506f3526111e9565b60a082015152610c4a7f1932c97baf6a2942ada6721b12dbf14f385a079ff7fac03c1f5b818c1ba1dc707f18e5c823d57f49d5e8b34d73fc01efe3fcd3d990df44668eebe971fb27fd5c4f6111e9565b60a082015160200152610c9d7f202c332882bb6b61045025c5bc6bb636cc36152206b1d749cdebde58748908617f2734729a098dcfd9e010b71fc329ac678f0c1b6bd83f02b8d58b611fa5f384116111e9565b60a082015160400152610cf07f092840664e05259fb3431aaf516f80f38ebf7c5ac7882c6ce1efcc31692b45aa7f2f90962ed254b5e74ea3325f211932ceb64f7c234cd0b6be91da6aef7785ea796111e9565b60a082015160600152610d036005610fc7565b60c082015152610d136007610fc7565b60c082015160200152610d26600a610fc7565b60c082015160026020020181905250610de760405180604001604052807f260e01b251f6f1c7e7ff4e580791dee8ea51d87a358e038b4efe30fac09383c181526020017f0118c4d5b837bcc2bc89b5b398b5974e9f5944073b32078b7e231fec938883b081525060405180604001604052807f04fc6369f7110fe3d25156c1bb9a72859cf2a04641f99ba4ee413c80da6a5fe481526020017f22febda3c0c0632a56475b4214e5615e11e6dd3f96e6cea2854a87d4dacc5e55815250611207565b60e082015290565b6000610df9614379565b6000610e0682868661120f565b905080610e18576000925050506106ae565b6106a98286866114de565b610e2b6143da565b63ffffffff821660041415610e4557610e426118fb565b90505b919050565b6000806000610e5c8888888888611d62565b915091508960000151600081518110610e7157fe5b60200260200101518214610e8157fe5b600080610e8e8c8c61100d565b909250905081610ea5576000945050505050610315565b6000610eb18483611fd5565b8051909150610ed490610ec261104d565b83600160200201518f60e0015161110d565b9d9c50505050505050505050505050565b610eed614416565b82158015610ef9575081155b15610f1a5760405180604001604052808481526020018381525090506106ae565b60008051602061516a8339815191528310610f3457600080fd5b60008051602061516a8339815191528210610f4e57600080fd5b600060008051602061516a8339815191528384099050600060008051602061516a833981519152858609905060008051602061516a833981519152858209905060008051602061516a833981519152600382089050808214610faf57600080fd5b50506040805180820190915292835250602082015290565b610fcf614430565b7f30644e72e131a029b85045b68181585d2833e84879b9709143e1f593f00000018210610ffb57600080fd5b50604080516020810190915290815290565b6000611017614443565b61101f614379565b61102a81868661208c565b9250826110375750611046565b611042818686612322565b9150505b9250929050565b611055614470565b50604080516080810182527f198e9393920d483a7260bfb731fb5d25f1aa493335a9e71297e485b7aef312c28183019081527f1800deef121f1e76426a00665e5c4479674322d4f75edadd46debd5cd992f6ed6060830152815281518083019092527f090689d0585ff075ec9e99ad690c3395bc4b313370b38ef355acdadcd122975b82527f12c85ea5db8c6deb4aab71808dcb408fe3d1e7690c43d37b4ce6cc0166fa7daa60208381019190915281019190915290565b60408051600280825260608201909252600091829190816020015b611130614416565b8152602001906001900390816111285750506040805160028082526060820190925291925060009190602082015b611166614470565b81526020019060019003908161115e579050509050868260008151811061118957fe5b602002602001018190525084826001815181106111a257fe5b602002602001018190525085816000815181106111bb57fe5b602002602001018190525083816001815181106111d457fe5b602002602001018190525061031582826127cd565b6111f1614416565b5060408051808201909152918252602082015290565b6111f1614470565b60208101518251516000911461122457600080fd5b60018260200151101561123657600080fd5b60006112406129df565b905060005b83602001518110156112835761127b8560000151828151811061126457fe5b6020026020010151836129fb90919063ffffffff16565b600101611245565b5060005b60048110156112b7576112af856020015182600481106112a357fe5b60200201518390612a6e565b600101611287565b506112c181612a8a565b60208601526112cf81612a8a565b6040808701919091528401516112e6908290612a6e565b6112ef81612a8a565b855260005b600481101561131857611310856060015182600481106112a357fe5b6001016112f4565b5061132281612a8a565b60a0860152602083015160009067ffffffffffffffff8111801561134557600080fd5b5060405190808252806020026020018201604052801561136f578160200160208202803683370190505b50905060005b815181101561139e578082828151811061138b57fe5b6020908102919091010152600101611375565b506113b781856000015186604001518960a00151612afb565b60c087015260006113c9878787612eb3565b9050806113dc5760009350505050610120565b60005b600481101561140f57611407876080015182600481106113fb57fe5b60200201518590613093565b6001016113df565b5060005b60018110156114375761142f8760a0015182600181106113fb57fe5b600101611413565b5060005b60038110156114605761145887610120015182600381106113fb57fe5b60010161143b565b5060e0860151611471908490613093565b610100860151611482908490613093565b60c0860151611492908490613093565b61149b83612a8a565b60608801526101408601516114b1908490612a6e565b6101608601516114c2908490612a6e565b6114cb83612a8a565b6080880152506001925050509392505050565b6000806114ec8585856130a1565b835160a0870151919250600091611502916133ff565b9050600061150e61348f565b9050600061151c6001610fc7565b9050600061153e886060015160006004811061153457fe5b60200201516134b0565b9050600061154c6001610fc7565b905060015b60048110156115975761156482876134cc565b611583828b60600151836004811061157857fe5b6020020151906134f8565b945061158f838661350b565b600101611551565b5060608a01516115a89084906134cc565b6115b2828761350b565b60005b60048110156115f65760608b01516115ce9085906134cc565b6115e2848b60200151836004811061157857fe5b94506115ee838661350b565b6001016115b5565b5060005b600381101561163b5760608b01516116139085906134cc565b611627848a60a00151836004811061157857fe5b9450611633838661350b565b6001016115fa565b5060608a015161164c9084906134cc565b60608a015161165c9084906134cc565b6116668184613516565b60808a01516116769082906134cc565b60208901516116889082906003611578565b9350611694828561350b565b61169e6001610fc7565b925060006116af8a60e0015161351b565b90506116c88b60600151856134cc90919063ffffffff16565b6101008a01516116d9908390613516565b6116e382856134cc565b6116ed818361352a565b60005b60048110156117445760608c01516117099086906134cc565b6117288b60800151826004811061171c57fe5b60200201518490613516565b61173283866134cc565b61173c828461352a565b6001016116f0565b5060005b60038110156117915760608c01516117619086906134cc565b6117758b6101200151826003811061171c57fe5b61177f83866134cc565b611789828461352a565b600101611748565b5060608b01516117a29085906134cc565b60c08a01516117b2908390613516565b6117bc82856134cc565b60808b01516117cc9083906134cc565b6117d6818361352a565b60608b01516117e69085906134cc565b60a08a01516117fe9060005b60200201518390613516565b61180882856134cc565b60808b01516118189083906134cc565b611822818361352a565b61183e6118378261183161348f565b906134f8565b8490613556565b60a08b01516101408b0151849161185f91611858916134f8565b829061350b565b60a08c015161186f908490613516565b60408a015161187f9084906134cc565b60808c015161188f9084906134cc565b6101608b01516118a39061185890856134f8565b60006118c18d608001518d61016001516134f890919063ffffffff16565b90506118db8c61014001518261350b90919063ffffffff16565b6118e481613561565b610ed4826118f061104d565b838e60e0015161110d565b6119036143da565b628000008152600160208201526119397f1283ba6f4b7b1a76ba2008fe823128bea4adb9269cbfd7c41c223be65bc60863610fc7565b60408201526119887f2cf12f7832b5225697a0546bbff09e6f683cb934248153dcd275d07aad865f337f24cf23b2309f0f2de79ddb50aacf1c4b91ae5645d43a61675813aa8a41c809766111e9565b6060820151526119d87f24325822f1120b45d7dbc0856f38eea4e04564be25db340ace1842c2ec425eee7f142ae60cd65c9a1ccf300d2d2954659b473097e0722f4603fca82413775a8bdf6111e9565b606082015160200152611a2b7f2b045c42175f88a919baddad23f2e8071062ccdb0827ecc3d065ed31ada5362f7f135cdcf1a822fc2d7ec56527237582a4de45b10fe5495164025f57c1e01742a46111e9565b606082015160400152611a7e7f03780bf1d281d9826bc604575714a0237fd83fbd4e759707326f4b878456cd4f7f2e4cbfb5ec2a0523afd1d50fbc3a07721e0e20e9dd71a2b5a55dfd88abaece866111e9565b6060828101510152611ad07f02e962e57dd5e2c98f5237d22063d99a93a362660f538eb8c3904f13cfce9b217f160190d18a9896bee4fe630aefa9b0a7ae540c24f2962cd7d3b4edabc053be2f6111e9565b606082015160800152611b237f06422f605c5a1314c982c719726a103e47cdee8f69d965b9f4e8990405c185c07f2d2941e681e9f9c8c9ec5c8bb4c5282bdb53f851afb473b6c666a7eb7c30e11d6111e9565b606082015160a00152611b767f0a2d1801286447914e59523170957011914d83e3d41d2cad8659d1ea3987d3337f1a494a0623b646eae5d3d35e8f574c14ed334853c26df2a1da96ad4dda1041ae6111e9565b606082015160c00152611bc97f1959ddadc62fc4908393a213b6abfbcbc2f176ccb94fa5b62abf0f59e7b328f07f240981eecb9bc9c38b180d9188e02aac3f10909f7f580304fe5a60d2dbe68eee6111e9565b608082015152611c197f14b425124626a626f1c636c88ed0256ad7d5903a3f0ae7a76baf59d7572026357f036c61bf223ef00afc39c5b0a4325f74862373fced6f4e50f31130c0246620176111e9565b608082015160200152611c6c7f0de480e3b300252122d4ddd21896e626bd9986c3e12d05dbe485f11e1e9dce077f2801eb305cb659ecde940b41be8395f1de350144c557884e93eef68cea1704806111e9565b60a082015152611cbc7f05dd6ba19c87be1a749994d434c7e039aa8366c1796fb930d5e2aade1fd3ea627f18c39350c7f256bc2d15004ddeaa4b55df144c1dd6eb8ea25ec7800a04bd78236111e9565b60a082015160200152611d0f7f208fafa47233eb3c655016458d06681fb21ab02fa94de895865e183452b587997f0fee410b405ff7a39057b05cc2e6ff29edf6111b992bcd7e9ec16016c599b2356111e9565b60a082015160400152610cf07f1327632855252d0ab25e57bd5319e6a4b47fa9ccc7e812e941df6a125d33ef2e7f161d7ff65956858216f5ae1693883699e1beafaade43b592321a203e52096e8b6111e9565b6000611d6c614443565b8351855114611d7757fe5b600087604051602001611d8a9190615081565b60408051601f1981840301815291905290506000805b8751811015611dfc57878181518110611db557fe5b602002602001015191508860ff168260ff161115611dcf57fe5b8282604051602001611de2929190615041565b60408051601f198184030181529190529250600101611da0565b506000805b8851811015611e7657878181518110611e1657fe5b602002602001015191507f30644e72e131a029b85045b68181585d2833e84879b9709143e1f593f00000018210611e4957fe5b8382604051602001611e5c929190615028565b60408051601f198184030181529190529350600101611e01565b508286604051602001611e8a929190614fea565b60405160208183030381529060405292506000600284604051611ead9190614fde565b602060405180830381855afa158015611eca573d6000803e3d6000fd5b5050506040513d601f19601f82011682018060405250810190611eed9190614d41565b6060880151604089015160208a01518a5160e08c015160c08d015160a08e01517effffffffffffffffffffffffffffffffffffffffffffffffffffffffffffff88169d50969750611f6796604494851b93909301608895861b0160cc96871b01959190911b931b911b8b60045b6020020151010101610ee5565b85526101608701516101408801516101208901516101008a01516101e08b01516101c08c01516101a08d0151611fbf96604495861b94909401608896871b0160cc94851b01959290931b93911b91901b8b600c611f5a565b8560016020020152505050509550959350505050565b611fdd614443565b6000611fe76129df565b9050611ffc8460005b60200201518290612a6e565b612007846001611ff0565b612012836000611ff0565b61201d836001611ff0565b600061202882612a8a565b9050612035856000611534565b8352612042856001611534565b60208401526000612054828683611578565b9050612069818560005b60200201519061350b565b61207582866001611578565b90506120838185600161205e565b50505092915050565b6020810151825151600091146120a157600080fd5b6001826020015110156120b357600080fd5b60006120bd6129df565b905060005b83602001518110156120e9576120e18560000151828151811061126457fe5b6001016120c2565b5060005b600481101561211157612109856020015182600481106112a357fe5b6001016120ed565b5061211b81612a8a565b602086015261212981612a8a565b604080870191909152840151612140908290612a6e565b61214981612a8a565b855260005b60048110156121725761216a856060015182600481106112a357fe5b60010161214e565b5061217c81612a8a565b60a0860152602083015160009067ffffffffffffffff8111801561219f57600080fd5b506040519080825280602002602001820160405280156121c9578160200160208202803683370190505b50905060005b81518110156121f857808282815181106121e557fe5b60209081029190910101526001016121cf565b5061221181856000015186604001518960a00151613597565b60c08701526000612223878787613843565b9050806122365760009350505050610120565b610100860151612247908490613093565b60005b600481101561226e57612266876080015182600481106113fb57fe5b60010161224a565b5060005b60018110156122965761228e8760a0015182600181106113fb57fe5b600101612272565b5060c0860151516122a8908490613093565b60005b60038110156122d0576122c887610140015182600381106113fb57fe5b6001016122ab565b5060e08601516122e1908490613093565b6101208601516122f2908490613093565b6122fb83612a8a565b6060880152610160860151612311908490612a6e565b6101808601516114c2908490612a6e565b61232a614443565b6000612337858585613a8a565b835160a087015191925060009161234d916133ff565b9050600061235961348f565b905060006123676001610fc7565b9050600061237f886060015160006004811061153457fe5b9050600061238d6001610fc7565b905060015b60048110156123cd576123a582876134cc565b6123b9828b60600151836004811061157857fe5b94506123c5838661350b565b600101612392565b5060608a01516123de9084906134cc565b6123e8828761350b565b60005b600481101561242c5760608b01516124049085906134cc565b612418848b60200151836004811061157857fe5b9450612424838661350b565b6001016123eb565b5060005b600181101561246f5760608b01516124499085906134cc565b608089015161245b9085906000611578565b9450612467838661350b565b600101612430565b5060005b60038110156124b45760608b015161248c9085906134cc565b6124a0848a60a00151836004811061157857fe5b94506124ac838661350b565b600101612473565b5060608a01516124c59084906134cc565b6124cf8184613516565b60808a01516124df9082906134cc565b60408901516124f9906124f290836134f8565b839061350b565b60608a01516125099084906134cc565b6125138184613516565b60808a01516125239082906134cc565b60208901516125359082906003611578565b9350612541828561350b565b61254b6001610fc7565b9250600061255d8a610100015161351b565b90506125768b60600151856134cc90919063ffffffff16565b6101208a0151612587908390613516565b61259182856134cc565b61259b818361352a565b60005b60048110156125e65760608c01516125b79086906134cc565b6125ca8b60800151826004811061171c57fe5b6125d483866134cc565b6125de828461352a565b60010161259e565b5060005b60018110156126325760608c01516126039086906134cc565b6126168b60c00151826001811061171c57fe5b61262083866134cc565b61262a828461352a565b6001016125ea565b5060005b600381101561267f5760608c015161264f9086906134cc565b6126638b6101400151826003811061171c57fe5b61266d83866134cc565b612677828461352a565b600101612636565b5060608b01516126909085906134cc565b60e08a01516126a0908390613516565b6126aa82856134cc565b60808b01516126ba9083906134cc565b6126c4818361352a565b60608b01516126d49085906134cc565b60a08a01516126e49060006117f2565b6126ee82856134cc565b60808b01516126fe9083906134cc565b612708818361352a565b6127176118378261183161348f565b60a08b01516101608b0151849161273191611858916134f8565b60a08c0151612741908490613516565b60408a01516127519084906134cc565b60808c01516127619084906134cc565b6101808b01516127759061185890856134f8565b60006127938d608001518d61018001516134f890919063ffffffff16565b90506127ad8c61016001518261350b90919063ffffffff16565b6127b681613561565b908952602089015250959998505050505050505050565b600081518351146127dd57600080fd5b82516006810260008167ffffffffffffffff811180156127fc57600080fd5b50604051908082528060200260200182016040528015612826578160200160208202803683370190505b50905060005b838110156129ab5786818151811061284057fe5b60200260200101516000015182826006026000018151811061285e57fe5b60200260200101818152505086818151811061287657fe5b60200260200101516020015182826006026001018151811061289457fe5b6020026020010181815250508581815181106128ac57fe5b6020908102919091010151515182518390600260068502019081106128cd57fe5b6020026020010181815250508581815181106128e557fe5b6020908102919091010151516001602002015182826006026003018151811061290a57fe5b60200260200101818152505085818151811061292257fe5b60200260200101516020015160006002811061293a57fe5b602002015182826006026004018151811061295157fe5b60200260200101818152505085818151811061296957fe5b60200260200101516020015160016002811061298157fe5b602002015182826006026005018151811061299857fe5b602090810291909101015260010161282c565b506129b4614490565b6000602082602086026020860160085afa9050806129d157600080fd5b505115159695505050505050565b6129e76144ae565b600080825260208201819052604082015290565b8151602080840151604051612a19926000928592909187910161508a565b60408051601f1981840301815291815281516020928301208552848201519051612a4c926001928592909187910161508a565b60408051601f1981840301815291905280516020918201209301929092525050565b612a7c8282600001516129fb565b6101278282602001516129fb565b612a92614430565b60006002836000015184602001518560400151604051602001612ab894939291906150b4565b60408051808303601f190181529181528151602092830120948101805160010163ffffffff169052805191820190526001600160fd1b0390931683525090919050565b60606000612b096001610fc7565b90506000612b176000610fc7565b90506000612b2487610fc7565b90506000612b3286896133ff565b9050612b3e8185613de4565b8051612b4957600080fd5b6000895167ffffffffffffffff81118015612b6357600080fd5b50604051908082528060200260200182016040528015612b9d57816020015b612b8a614430565b815260200190600190039081612b825790505b50905060008a5167ffffffffffffffff81118015612bba57600080fd5b50604051908082528060200260200182016040528015612bf457816020015b612be1614430565b815260200190600190039081612bd95790505b50905060005b8b51811015612cc557612c298c8281518110612c1257fe5b60200260200101518b6133ff90919063ffffffff16565b9550612c5184848381518110612c3b57fe5b602002602001015161351690919063ffffffff16565b612c7786848381518110612c6157fe5b60200260200101516134cc90919063ffffffff16565b612c8789838381518110612c3b57fe5b612cad86838381518110612c9757fe5b6020026020010151613de490919063ffffffff16565b612cbd85838381518110612c6157fe5b600101612bfa565b5060008b5167ffffffffffffffff81118015612ce057600080fd5b50604051908082528060200260200182016040528015612d1a57816020015b612d07614430565b815260200190600190039081612cff5790505b509050612d37612d2a6001610fc7565b82600081518110612c3b57fe5b60015b6001835103811015612d9757612d6c836001830381518110612d5857fe5b6020026020010151838381518110612c3b57fe5b612d8f838281518110612d7b57fe5b6020026020010151838381518110612c6157fe5b600101612d3a565b50612dc281600183510381518110612dab57fe5b60200260200101518661351690919063ffffffff16565b612dec82600184510381518110612dd557fe5b6020026020010151866134cc90919063ffffffff16565b612df585613e14565b8251909550600019015b8251811015612e6a57612e1886848381518110612c3b57fe5b612e3b828281518110612e2757fe5b6020026020010151848381518110612c6157fe5b612e61838281518110612e4a57fe5b6020026020010151876134cc90919063ffffffff16565b60001901612dff565b5060005b8351811015612ea257612e9a838281518110612e8657fe5b6020026020010151858381518110612c6157fe5b600101612e6e565b50919b9a5050505050505050505050565b600080612ec883600001518660a00151613e51565b8051909150612ed657600080fd5b60e0840151612ee69082906134cc565b6000612ef26001610fc7565b90506000612f0486610100015161351b565b90506000612f126000610fc7565b905060005b875151811015612f7a57612f4b8960c001518281518110612f3457fe5b60200260200101518361351690919063ffffffff16565b612f68612f61896000015183815181106104ee57fe5b83906134cc565b612f72838361352a565b600101612f17565b508751612f889084906134cc565b6000612f978860c0015161351b565b905060005b600381101561300a57612fb9896101200151826003811061171c57fe5b60208a0151612fc99084906134cc565b60408a0151612fd990849061352a565b612ff889608001518260048110612fec57fe5b6020020151849061352a565b61300282846134cc565b600101612f9c565b50604089015161301b908390613516565b60808801516060015161302f90839061352a565b61303981836134cc565b61304381856134cc565b61304d8382613de4565b885161305a9085906134cc565b61306e8960c00151600081518110612f3457fe5b61307882856134cc565b6130828383613de4565b505051915190911495945050505050565b6101278282600001516129fb565b6130a9614416565b60608201516009906130bc906005611534565b915060006130c861348f565b905060006130d66000610fc7565b905060005b60048110156131205761310c876080015182600481106130f757fe5b60200201518760600151836006811061157857fe5b9250613118858461350b565b6001016130db565b5060808601516131399060005b60200201518290613516565b60808601516131519060015b602002015182906134cc565b60608501516131639082906004611578565b915061316f848361350b565b60a086015151608086015161318691906000611578565b9150613192848361350b565b60006131a18860a0015161351b565b90506131ba8860200151826134cc90919063ffffffff16565b60808701516131d29060005b6020020151829061352a565b60408801516131e290829061352a565b60005b60038110156132655760a08901516131fe908490613516565b61321d8760c00151826003811061321157fe5b602002015184906134cc565b602089015161322d9084906134cc565b604089015161323d90849061352a565b61325388608001518260010160048110612fec57fe5b61325d82846134cc565b6001016131e5565b5087516132739082906134cc565b6132878860c00151600081518110612f3457fe5b87516132949083906134cc565b87516132a19083906134cc565b6132ab818361352a565b60608801516000906132bd90866133ff565b90506132d68960800151826134cc90919063ffffffff16565b60006132e26001610fc7565b905060005b60038110156133615760208b0151613300908690613516565b6133208a6101200151826003811061331457fe5b602002015186906134cc565b60408b015161333090869061352a565b61334f8a60800151826004811061334357fe5b6020020151869061352a565b61335982866134cc565b6001016132e7565b5060208a01516133729082906134cc565b60c08901516133829082906134cc565b895161338f9082906134cc565b604089015161339e90846134f8565b60a08901519095506133be906133b79083906003611578565b8690613556565b6133c8878661350b565b60608a01516133d8908890613e79565b60408901516133f2906133eb90846134f8565b889061350b565b5050505050509392505050565b613407614430565b6040805160c08101825260208082528082018190529181019190915283516060820152608081018390527f30644e72e131a029b85045b68181585d2833e84879b9709143e1f593f000000160a082015261345f614490565b600060208260c08560055afa90508061347757600080fd5b50604080516020810190915290518152949350505050565b613497614416565b5060408051808201909152600181526002602082015290565b6134b8614416565b815181526020918201519181019190915290565b7f30644e72e131a029b85045b68181585d2833e84879b9709143e1f593f0000001815183510990915250565b613500614416565b6106ae838383613e80565b610127828284613ec2565b519052565b613523614430565b9051815290565b7f30644e72e131a029b85045b68181585d2833e84879b9709143e1f593f0000001815183510890915250565b610127828284613f5a565b602081015161357b5780511561357657600080fd5b613594565b60208101805160008051602061516a8339815191520390525b50565b606060006135a56001610fc7565b905060006135b36000610fc7565b905060006135c087610fc7565b905060006135ce86896133ff565b90506135da8185613de4565b80516135e557600080fd5b6000895167ffffffffffffffff811180156135ff57600080fd5b5060405190808252806020026020018201604052801561363957816020015b613626614430565b81526020019060019003908161361e5790505b50905060008a5167ffffffffffffffff8111801561365657600080fd5b5060405190808252806020026020018201604052801561369057816020015b61367d614430565b8152602001906001900390816136755790505b50905060005b8b51811015613708576136ae8c8281518110612c1257fe5b95506136c084848381518110612c3b57fe5b6136d086848381518110612c6157fe5b6136e089838381518110612c3b57fe5b6136f086838381518110612c9757fe5b61370085838381518110612c6157fe5b600101613696565b5060008b5167ffffffffffffffff8111801561372357600080fd5b5060405190808252806020026020018201604052801561375d57816020015b61374a614430565b8152602001906001900390816137425790505b50905061376d612d2a6001610fc7565b60015b60018351038110156137a55761378e836001830381518110612d5857fe5b61379d838281518110612d7b57fe5b600101613770565b506137b981600183510381518110612dab57fe5b6137cc82600184510381518110612dd557fe5b6137d585613e14565b8251909550600019015b825181101561381f576137f886848381518110612c3b57fe5b613807828281518110612e2757fe5b613816838281518110612e4a57fe5b600019016137df565b5060005b8351811015612ea25761383b838281518110612e8657fe5b600101613823565b60008061385883600001518660a00151613e51565b805190915061386657600080fd5b6101008401516138779082906134cc565b60006138836001610fc7565b9050600061389586610120015161351b565b905060006138a36000610fc7565b905060006138b16000610fc7565b905060005b885151811015613919576138ea8a60c0015182815181106138d357fe5b60200260200101518461351690919063ffffffff16565b6139076139008a6000015183815181106104ee57fe5b84906134cc565b613911828461352a565b6001016138b6565b5060c088015161392a906000613145565b613934838261352a565b88516139419085906134cc565b885161394e9085906134cc565b885161395b9085906134cc565b88516139689085906134cc565b88516139759085906134cc565b60006139848960e0015161351b565b905060005b6003811015613a03576139b28a610140015182600381106139a657fe5b60200201518590613516565b60208b01516139c29085906134cc565b60408b01516139d290859061352a565b6139f18a6080015182600481106139e557fe5b6020020151859061352a565b6139fb82856134cc565b600101613989565b5060408a0151613a14908490613516565b6080890151613a24906003612fec565b613a2e81846134cc565b613a3881866134cc565b613a428482613de4565b8951613a4f9086906134cc565b613a638a60c001516000815181106138d357fe5b613a6d83866134cc565b613a778484613de4565b5050905192519092149695505050505050565b613a92614416565b6060820151613aa2906005611534565b90506000613aae61348f565b90506000613abc6000610fc7565b905060005b6004811015613b0657613af286608001518260048110613add57fe5b60200201518660600151836007811061157857fe5b9250613afe848461350b565b600101613ac1565b506080850151613b1790600061312d565b6080850151613b27906001613145565b6060840151613b399082906004611578565b9150613b45838361350b565b60a0850151516060850151613b5c91906006611578565b9150613b68838361350b565b60c085015151613b79908490613e79565b6000613b856001610fc7565b9050613b92878783613ff4565b9150613ba982866080015160016002811061157857fe5b9250613bb5848461350b565b8651613bc29082906134cc565b6000613bcd8261351b565b90506000613bde8960a0015161351b565b9050613bf78960200151826134cc90919063ffffffff16565b6080880151613c079060006131c6565b6040890151613c1790829061352a565b60005b6003811015613c8e5760a08a0151613c33908690613516565b613c468860c00151826003811061331457fe5b60208a0151613c569086906134cc565b60408a0151613c6690869061352a565b613c7c8960800151826001016004811061334357fe5b613c8682866134cc565b600101613c1a565b50613c9981836134cc565b8851613ca69084906134cc565b613cd18960c00151600081518110613cba57fe5b60200260200101518561351690919063ffffffff16565b613cdb84846134cc565b613ce5818561352a565b6000613cf16001610fc7565b905060005b6003811015613d705760208b0151613d0f908790613516565b613d2f8a61014001518260038110613d2357fe5b602002015187906134cc565b60408b0151613d3f90879061352a565b613d5e8a608001518260048110613d5257fe5b6020020151879061352a565b613d6882876134cc565b600101613cf6565b5060208a0151613d819082906134cc565b60e0890151613d919082906134cc565b613d9b81846134cc565b6040890151613daa90836134f8565b60a0890151909650613dca90613dc39083906003611578565b8790613556565b613dd4878761350b565b60608a01516133f2908890613e79565b805182517f30644e72e131a029b85045b68181585d2833e84879b9709143e1f593f0000001918203900890915250565b613e1c614430565b8151613e2757600080fd5b610e42827f30644e72e131a029b85045b68181585d2833e84879b9709143e1f593efffffff6133ff565b613e59614430565b613e6382846133ff565b90506106ae613e726001610fc7565b8290613de4565b6101278282845b613e886144ce565b835181526020840151816001602002015282518160026020020152600060408360608460075afa905080613ebb57600080fd5b5050505050565b8151158015613ed357506020820151155b15613eeb578251815260208084015190820152613f55565b8251158015613efc57506020830151155b15613f14578151815260208083015190820152613f55565b613f1c6144ec565b8351815260208085015181830152835160408301528301518160035b6020020152600060408360808460065afa905080613ebb57600080fd5b505050565b8151158015613f6b57506020820151155b15613f83578251815260208084015190820152613f55565b8251158015613f9457506020830151155b15613fbc578151815260208083015160008051602061516a8339815191520390820152613f55565b613fc46144ec565b83518152602080850151818301528351604083015283015160008051602061516a83398151915203816003613f38565b613ffc614430565b60006140086001610fc7565b905060006140166002610fc7565b905060006140246003610fc7565b905060006140326004610fc7565b905061403e6000610fc7565b9450600061404c6000610fc7565b9050600061405a6000610fc7565b905060006140686000610fc7565b905060005b6003811015614155578b51614083908b906134cc565b6140a38b60800151826003036004811061409957fe5b602002015161351b565b93506140af84866134cc565b6140c58b60800151826002036004811061409957fe5b92506140d18385613de4565b6140da8361351b565b91506140e58361351b565b93506140f18489613de4565b6140fb82856134cc565b6141048361351b565b93506141108488613de4565b61411a82856134cc565b6141238361351b565b935061412f8487613de4565b61413982856134cc565b614143828b6134cc565b61414d898361352a565b60010161406d565b508a51614163908a906134cc565b60808a0151614173906000614099565b925061417f83856134cc565b60a08a015161418f906000614099565b915061419b8284613de4565b6141a48261351b565b90506141af8261351b565b92506141bb8388613de4565b6141c581846134cc565b6141ce8261351b565b92506141da8387613de4565b6141e481846134cc565b6141ed8261351b565b92506141f98386613de4565b61420381846134cc565b61420d818a6134cc565b614217888261352a565b505050505050509392505050565b604051806101a001604052806060815260200161424061450a565b815260200161424d614416565b815260200161425a61450a565b8152602001614267614537565b8152602001614274614564565b8152602001614281614564565b815260200161428e614430565b815260200161429b614430565b81526020016142a8614430565b81526020016142b5614591565b81526020016142c2614416565b81526020016142cf614416565b905290565b604051806101800160405280606081526020016142ef61450a565b81526020016142fc614416565b815260200161430961450a565b8152602001614274614537565b6040518061010001604052806000815260200160008152602001614338614430565b81526020016143456145be565b81526020016143526145eb565b815260200161435f61450a565b815260200161436c614591565b81526020016142cf614470565b6040518060e0016040528061438c614430565b8152602001614399614430565b81526020016143a6614430565b81526020016143b3614430565b81526020016143c0614430565b81526020016143cd614430565b8152602001606081525090565b60405180610100016040528060008152602001600081526020016143fc614430565b8152602001614409614618565b8152602001614352614443565b604051806040016040528060008152602001600081525090565b6040518060200160405280600081525090565b60405180604001604052806002905b61445a614416565b8152602001906001900390816144525790505090565b6040518060400160405280614483614645565b81526020016142cf614645565b60405180602001604052806001906020820280368337509192915050565b604080516060810182526000808252602082018190529181019190915290565b60405180606001604052806003906020820280368337509192915050565b60405180608001604052806004906020820280368337509192915050565b60405180608001604052806004905b614521614416565b8152602001906001900390816145195790505090565b60405180608001604052806004905b61454e614430565b8152602001906001900390816145465790505090565b60405180602001604052806001905b61457b614430565b8152602001906001900390816145735790505090565b60405180606001604052806003905b6145a8614430565b8152602001906001900390816145a05790505090565b6040518060c001604052806006905b6145d5614416565b8152602001906001900390816145cd5790505090565b60405180602001604052806001905b614602614416565b8152602001906001900390816145fa5790505090565b6040518060e001604052806007905b61462f614416565b8152602001906001900390816146275790505090565b60405180604001604052806002906020820280368337509192915050565b600061467661467184615130565b61510c565b905080826040868187028601111561468d57600080fd5b60005b868110156146b6576146a288846149a5565b845260209093019291810191600101614690565b505050509392505050565b60006146cf61467184615130565b90508082602086818702860111156146e657600080fd5b60005b868110156146b6578235845292810192918101916001016146e9565b600082601f830112614715578081fd5b6040516060810181811067ffffffffffffffff8211171561473257fe5b604052808360608101861015614746578384fd5b835b60038110156147705761475b878361496a565b83526020928301929190910190600101614748565b509195945050505050565b600082601f83011261478b578081fd5b6040805181810181811067ffffffffffffffff821117156147a857fe5b82528084608081018710156147bb578485fd5b845b60028110156147e4576147d088836149a5565b8352602090920191908401906001016147bd565b50919695505050505050565b600082601f830112614800578081fd5b61012083600484614663565b600082601f83011261481c578081fd5b61012083600784614663565b600082601f830112614838578081fd5b610120836010846146c1565b600082601f830112614854578081fd5b610120836002846146c1565b60008083601f840112614871578182fd5b50813567ffffffffffffffff811115614888578182fd5b602083019150836020808302850101111561104657600080fd5b600082601f8301126148b2578081fd5b813560206148c26146718361514b565b82815281810190858301838502870184018810156148de578586fd5b855b858110156148fc578135845292840192908401906001016148e0565b5090979650505050505050565b600082601f830112614919578081fd5b813560206149296146718361514b565b8281528181019085830183850287018401881015614945578586fd5b855b858110156148fc5761495882614b1b565b84529284019290840190600101614947565b60006020828403121561497b578081fd5b6040516020810181811067ffffffffffffffff8211171561499857fe5b6040529135825250919050565b6000604082840312156149b6578081fd5b6040516040810181811067ffffffffffffffff821117156149d357fe5b604052823581526020928301359281019290925250919050565b6000608082840312156149fe578081fd5b6040516040810181811067ffffffffffffffff82111715614a1b57fe5b604052905080614a2b8484614844565b8152614a3a8460408501614844565b60208201525092915050565b60006104808284031215614a58578081fd5b614a6361010061510c565b90508135815260208201356020820152614a80836040840161496a565b6040820152614a92836060840161480c565b6060820152614aa583610220840161477b565b6080820152614ab8836102a084016147f0565b60a0820152614acb836103a08401614705565b60c0820152614ade8361040084016149ed565b60e082015292915050565b80356fffffffffffffffffffffffffffffffff81168114610e4557600080fd5b803561ffff81168114610e4557600080fd5b803560ff81168114610e4557600080fd5b60008060008060006102808688031215614b44578081fd5b853567ffffffffffffffff80821115614b5b578283fd5b614b6789838a016148a2565b96506020880135915080821115614b7c578283fd5b614b8889838a016148a2565b95506040880135915080821115614b9d578283fd5b614ba989838a01614909565b94506060880135915080821115614bbe578283fd5b50614bcb888289016148a2565b925050614bdb8760808801614828565b90509295509295909350565b60008060006104c08486031215614bfc578081fd5b833567ffffffffffffffff80821115614c13578283fd5b614c1f878388016148a2565b94506020860135915080821115614c34578283fd5b50614c41868287016148a2565b925050614c518560408601614a46565b90509250925092565b600080600080600080600080610740898b031215614c76578586fd5b883567ffffffffffffffff80821115614c8d578788fd5b614c998c838d016148a2565b995060208b0135915080821115614cae578788fd5b614cba8c838d016148a2565b985060408b01359750614ccf60608c01614b1b565b965060808b0135915080821115614ce4578485fd5b614cf08c838d01614909565b955060a08b0135915080821115614d05578485fd5b50614d128b828c016148a2565b935050614d228a60c08b01614828565b9150614d328a6102c08b01614a46565b90509295985092959890939650565b600060208284031215614d52578081fd5b5051919050565b6000806000806000806000806000806101208b8d031215614d78578384fd5b8a359950614d8860208c01614b1b565b985060408b013563ffffffff81168114614da0578485fd5b9750614dae60608c01614b1b565b965060808b013573ffffffffffffffffffffffffffffffffffffffff81168114614dd6578485fd5b9550614de460a08c01614b09565b9450614df260c08c01614b09565b9350614e0060e08c01614ae9565b92506101008b013567ffffffffffffffff811115614e1c578283fd5b614e288d828e01614860565b915080935050809150509295989b9194979a5092959850565b60008060208385031215614e53578182fd5b823567ffffffffffffffff80821115614e6a578384fd5b818501915085601f830112614e7d578384fd5b813581811115614e8b578485fd5b866020828501011115614e9c578485fd5b60209290920196919550909350505050565b60008151815b81811015614ece5760208185018101518683015201614eb4565b81811115614edc5782828601525b509290920192915050565b60f01b7fffff000000000000000000000000000000000000000000000000000000000000169052565b8881527fff0000000000000000000000000000000000000000000000000000000000000060f889811b821660208401526001600160e01b031960e08a901b16602184015287901b1660258201526bffffffffffffffffffffffff19606086901b1660268201527fffff00000000000000000000000000000000000000000000000000000000000060f085901b16603a8201526000614fb1603c830185614ee7565b5060809190911b6fffffffffffffffffffffffffffffffff1916603e820152604e01979650505050505050565b60006101208284614eae565b6000614ff68285614eae565b8084835b6010811015615019578151845260209384019390910190600101614ffa565b50506102000195945050505050565b60006150348285614eae565b9283525050602001919050565b600061504d8285614eae565b60f89390931b7fff000000000000000000000000000000000000000000000000000000000000001683525050600101919050565b90815260200190565b60e09490941b6001600160e01b031916845260048401929092526024830152604482015260640190565b6001600160e01b031960e095861b811682526004820194909452602481019290925290921b16604482015260480190565b901515815260200190565b602080825260029082015261056360f41b604082015260600190565b60405181810167ffffffffffffffff8111828210171561512857fe5b604052919050565b600067ffffffffffffffff82111561514457fe5b5060200290565b600067ffffffffffffffff82111561515f57fe5b506020908102019056fe30644e72e131a029b85045b68181585d97816a916871ca8d3c208c16d87cfd47a26469706673582212202f340c877f004c5247e5d6a2f09415b94fc9b480260694ca9f3736782c62269164736f6c63430007060033",
  "linkReferences": {},
  "deployedLinkReferences": {}
}